:020000040000FA
:04000000A4EF8BF0EE
:10FD12000049494E50566F6C74616765202020205F
:10FD22003D25303478202535645B6D415D0A0049FC
:10FD32006E70757443757272656E742020203D2555
:10FD4200303478202535645B6D415D0A0054656D61
:10FD5200702020202020203D25303478202025339B
:10FD6200645B646567435D0A00526570436170209D
:10FD72002020203D2530347820202535645B6D41DC
:10FD8200685D0A0044657369676E436170203D25B2
:10FD920030347820202535645B6D41685D0A00416E
:10FDA20076534F4320202020203D253034782020D8
:10FDB2002533645B25255D0A00526570534F43204D
:10FDC2002020203D2530347820202533645B2525F2
:10FDD2005D0A0043757272656E742020203D2530E5
:10FDE200347820202535645B6D415D0A00436867E5
:10FDF200696E67437572723D25303478202025354F
:10FE0200645B6D415D0A0050434B5020202020204E
:10FE1200203D2530347820202535645B6D565D0AFF
:10FE220000426174742020202020203D2530347847
:10FE320020202535645B6D565D0A0043454C4C31EC
:10FE420020202020203D2530347820202535645B79
:10FE52006D565D0A0043454C4C3220202020203D47
:10FE62002530347820202535645B6D565D0A0043C9
:10FE7200454C4C3320202020203D25303478202052
:10FE82002535645B6D565D0A0043454C4C34202099
:10FE92002020203D2530347820202535645B6D56A6
:10FEA2005D0A00436867696E67566F6C743D253062
:10FEB200347820202535645B6D565D0A0043686105
:10FEC200726765566F6C7461676520203D2530341A
:10FED200780A0043686172676543757272656E7471
:10FEE20020203D253034780A0052656C6561726EBF
:10FEF20020566F6C746167653D253034780A004383
:10FF02006F6E666967202020203D253034780A0014
:10FF1200537461747573202020203D253034780A93
:10FF220000436F6E666967322020203D25303478A9
:10FF32000A00537461747573322020203D253034D9
:10FF4200780A0052656C617843666720203D25304F
:10FF520034780A00436F6D6D5374617420203D251F
:10FF62003034780A004850726F7443666732203D1D
:10FF7200253034780A0050726F74416C65727420B7
:10FF82003D253034780A0050726F74537461747571
:10FF9200733D253034780A004176534F43202025A3
:10FFA20033645B25255D202000526570534F43204A
:10FFB2002533645B25255D202000444320253564DC
:10FFC2005B6D41685D2020005243202535645B6DE6
:10FFD20041685D2020000A4D415831373334350ADB
:10FFE200002535645B6D565D20200A002535645B73
:0DFFF2006D415D202000626F6F74210000E2
:020000040001F9
:1000000047C0D9FF48C0DAFFDECFF6FFDDCFF7FFEC
:10001000000EF86E0800F550250AD8A412EF80F003
:1000200014EF80F020EF82F047C0D9FF48C0DAFF1C
:10003000DE2A000EDD22000E0001636F000E626FEB
:1000400062C066F063C067F064696569000E996F0D
:10005000000E986F74EF80F0668147C0D9FF48C0EA
:10006000DAFFDE2A000EDD2274EF80F066832DEFCA
:1000700080F066852DEF80F066872DEF80F0668931
:100080002DEF80F0000E996F010E986F74EF80F0E5
:1000900047C0D9FF48C0DAFFDECFF6FFDDCFF7FF5C
:1000A000000EF86E0800F5504B6E4C6A4C50000A7A
:1000B000D8B45DEF80F042EF80F04B50200AD8B406
:1000C0003CEF80F0030AD8B43FEF80F0080AD8B4C0
:1000D00039EF80F0060AD8B42CEF80F01D0AD8B4AE
:1000E00036EF80F042EF80F098519911D8B47BEF51
:1000F00080F07DEF80F048EF80F066A182EF80F025
:1001000084EF80F085EF80F0669347C0D9FF48C048
:10011000DAFFDECFF6FFDDCFF7FF000EF86E080046
:10012000F5502A0AD8A497EF80F099EF80F0C2EF3B
:1001300080F047C0D9FF48C0DAFFDE2A000EDD227A
:1001400049C0D9FF4AC0DAFFDFCF4BF0020EDE26EE
:10015000DFCF4CF0000EDD224BC0D9FF4CC0DAFFE0
:10016000DECF62F0DDCF63F063BFBBEF80F0B9EFAD
:1001700080F008EF81F06681626D631FD8B0632B59
:1001800008EF81F047C0D9FF48C0DAFFDECF08F0A2
:10019000DDCF09F01BEC85F008C062F009C063F008
:1001A000D9EF80F047C0D9FF48C0DAFFDE2A000E41
:1001B000DD22D00E4B6EFF0E4C6E47C0D9FF48C0FB
:1001C000DAFFDECFF6FFDDCFF7FF000EF86E080096
:1001D000F5504D6E4E6A4B504D264C504E224E50AF
:1001E0000AE10A0E4D5CD8A0F8EF80F0FBEF80F03A
:1001F000010EFCEF80F0000E00019A6F9B6B9A518C
:100200009B11D8A406EF81F008EF81F0D2EF80F0C7
:1002100047C0D9FF48C0DAFFDECFF6FFDDCFF7FFDA
:10022000000EF86E0800F550640AD8B41AEF81F099
:100230001CEF81F030EF81F047C0D9FF48C0DAFFF2
:10024000DECFF6FFDDCFF7FF000EF86E0800F550A9
:10025000690AD8A42EEF81F030EF81F070EF81F0C1
:1002600047C0D9FF48C0DAFFDE2A000EDD2249C0B0
:10027000D9FF4AC0DAFFDFCF4BF0020EDE26DFCF18
:100280004CF0000EDD224BC0D9FF4CC0DAFFDECFB0
:1002900088F0DDCF89F0000E89BFFF0E8A6F8B6F6B
:1002A0008C6F8D6F8E6F8F6F45C01EF046C01FF034
:1002B00088C020F089C021F08AC022F08BC023F0D2
:1002C0008CC024F08DC025F08EC026F08FC027F0A2
:1002D0003EEC82F01EC045F01FC046F03DEF82F0BC
:1002E00047C0D9FF48C0DAFFDECFF6FFDDCFF7FF0A
:1002F000000EF86E0800F550780AD8B482EF81F04D
:1003000084EF81F098EF81F047C0D9FF48C0DAFF51
:10031000DECFF6FFDDCFF7FF000EF86E0800F550D8
:10032000580AD8A496EF81F098EF81F0E8EF81F0B9
:1003300047C0D9FF48C0DAFFDECFF6FFDDCFF7FFB9
:10034000000EF86E0800F5CF9CF047C0D9FF48C0FA
:10035000DAFFDE2A000EDD2249C0D9FF4AC0DAFFEB
:10036000DFCF4BF0020EDE26DFCF4CF0000EDD2299
:100370004BC0D9FF4CC0DAFFDECF4DF0DDCF4EF0E1
:100380004DC090F04EC091F0926B936B946B956B57
:10039000966B976B45C01EF046C01FF090C020F0D2
:1003A00091C021F092C022F093C023F094C024F0B9
:1003B00095C025F096C026F097C027F09CC028F085
:1003C000AFEC83F01EC045F01FC046F03DEF82F059
:1003D00047C0D9FF48C0DAFFDECFF6FFDDCFF7FF19
:1003E000000EF86E0800F550250AD8A4FAEF81F047
:1003F000FCEF81F013EF82F047C0D9FF48C0DAFF6D
:10040000DE2A000EDD22000E046E250E036E45C0AE
:1004100005F046C006F043EC89F0000E466E010E72
:10042000456E3DEF82F047C0D9FF48C0DAFFDE2AB3
:10043000000EDD22000E466E000E456E3DEF82F08E
:1004400047C0D9FF48C0DAFFDECFF6FFDDCFF7FFA8
:10045000000EF86E0800F550036E046A45C005F002
:1004600046C006F043EC89F047C0D9FF48C0DAFF28
:10047000DE2A000EDD220DEF82F0120020C038F0DF
:1004800021C039F022C03AF023C03BF024C03CF038
:1004900025C03DF026C03EF027C03FF03FBE53EFE1
:1004A00082F056EF82F0010E57EF82F0000E366EAA
:1004B000376A36503710D8B460EF82F062EF82F0BE
:1004C00072EF82F03F1E3E1E3D1E3C1E3B1E3A1E3A
:1004D000391E386C000E39223A223B223C223D2242
:1004E0003E223F22000165BF78EF82F07AEF82F072
:1004F0007BEF82F0669365BF88EF82F0655106E17D
:100500006405D8B086EF82F088EF82F08EEF82F03B
:10051000000E336E010E326E92EF82F064C032F044
:1005200065C033F062C034F063C035F03650371028
:10053000D8A49DEF82F09FEF82F0A6EF82F066A52F
:10054000A4EF82F0A6EF82F0A9EF82F03406D8A0E3
:100550003506000E416E1F0E406E000E876F2DEFA8
:1005600083F04006D8A04106680E4024D96E000EE4
:100570004120DA6E38C001F039C002F03AC003F011
:100580003BC004F03CC005F03DC006F03EC007F0A3
:100590003FC008F00A0E096E000E0A6E000E0B6EC8
:1005A000000E0C6E000E0D6E000E0E6E000E0F6E25
:1005B000000E106EB1EC86F001C028F002C029F0E8
:1005C00003C02AF004C02BF005C02CF006C02DF0AB
:1005D00007C02EF008C02FF028C013F02AC014F076
:1005E000DDEC8AF01350300FDF6E3206D8A03306F0
:1005F0003406D8A0350638C001F039C002F03AC040
:1006000003F03BC004F03CC005F03DC006F03EC026
:1006100007F03FC008F00A0E096E000E0A6E000EC9
:100620000B6E000E0C6E000E0D6E000E0E6E000EA8
:100630000F6E000E106EEDEC85F001C038F002C0B8
:1006400039F003C03AF004C03BF005C03CF006C0EE
:100650003DF007C03EF008C03FF041BE38EF83F0E8
:10066000415008E14004D8A038EF83F03AEF83F01E
:100670006BEF83F0385039103A103B103C103D10AE
:100680003E103F10D8A447EF83F049EF83F0B1EF5D
:1006900082F033BE56EF83F0335006E13204D8B017
:1006A00054EF83F056EF83F0B1EF82F035BE61EF87
:1006B00083F0355008E13404D8A061EF83F063EF94
:1006C00083F06BEF83F0000166B369EF83F06BEFAB
:1006D00083F0B1EF82F036503710D8A472EF83F078
:1006E00074EF83F07CEF83F0000166A57AEF83F06E
:1006F0007CEF83F09AEF83F04006D8A04106365095
:100700003710D8A486EF83F088EF83F08EEF83F064
:10071000000E316E2B0E306E92EF83F0000E316EB4
:100720002D0E306E680E4024D96E000E4120DA6E18
:1007300030C0DFFF1EC013F01FC014F0680E40244D
:10074000156E000E4120166E34C017F035C018F03B
:1007500082EC88F013C01EF014C01FF012000001DC
:1007600065BFB5EF83F0B7EF83F0B8EF83F0669322
:1007700065BFC5EF83F0655106E16405D8B0C3EFEE
:1007800083F0C5EF83F0CBEF83F0000E366E010EE1
:10079000356ECFEF83F064C035F065C036F062C0CF
:1007A00037F063C038F066A9D8EF83F0DAEF83F052
:1007B000DEEF83F0FE0E3726FF0E382220C039F020
:1007C00021C03AF022C03BF023C03CF024C03DF0F1
:1007D00025C03EF026C03FF027C040F0000E426E1C
:1007E0001F0E416E000E876FA9EF84F04106D8A05E
:1007F00042060F0E3914436E446A44BE09EF84F07A
:10080000445009E10A0E435CD8A009EF84F00BEFD5
:1008100084F013EF84F0570E4324436E000E4420FF
:10082000446E19EF84F0300E4324436E000E4420D2
:10083000446EBF0E296EFF0E2A6E28502B6E2C6A56
:1008400029502B262A502C222C500AE11A0E2B5C00
:10085000D8A02DEF84F030EF84F0010E31EF84F05A
:10086000000E316E326A31503210D8B43AEF84F053
:100870003CEF84F06CEF84F09F0E296EFF0E2A6E21
:10088000200E43102B6E000E44102C6E29502B2688
:100890002A502C222C500AE11A0E2B5CD8A053EFC0
:1008A00084F056EF84F0010E57EF84F0000E336EA3
:1008B000346A33503410D8B460EF84F062EF84F0BF
:1008C0006CEF84F043C007F044C008F042EC8AF0BB
:1008D00007C043F008C044F0680E4124D96E000EF2
:1008E0004220DA6E43C0DFFF3506D8A03606370651
:1008F000D8A0380639C029F03AC02AF03BC02BF006
:100900003CC02CF03DC02DF03EC02EF03FC02FF07B
:1009100040C030F0050E96EF84F0D89030322F3280
:100920002E322D322C322B322A322932E82E8DEF04
:1009300084F029C039F02AC03AF02BC03BF02CC01B
:100940003CF02DC03DF02EC03EF02FC03FF030C037
:1009500040F042BEB5EF84F0425009E1020E415C26
:10096000D8A0B5EF84F0B7EF84F0E8EF84F0395009
:100970003A103B103C103D103E103F104010D8A4E0
:10098000C4EF84F0C6EF84F0F6EF83F036BED3EF09
:1009900084F0365006E13504D8B0D1EF84F0D3EFBF
:1009A00084F0F6EF83F038BEDEEF84F0385008E1D3
:1009B0003704D8A0DEEF84F0E0EF84F0E8EF84F0B5
:1009C000000166B3E6EF84F0E8EF84F0F6EF83F021
:1009D000000166A9EEEF84F0F0EF84F006EF85F0F9
:1009E0004106D8A04206680E4124D96E000E42206E
:1009F000DA6E28C0DFFF4106D8A04206680E412407
:100A0000D96E000E4220DA6E300EDF6E1EC013F07B
:100A10001FC014F0680E4124156E000E4220166EA1
:100A200037C017F038C018F082EC88F013C01EF001
:100A300014C01FF01200000E166E000E156E000E90
:100A40000F6E000E0E6E27EF85F0084A092A010E80
:100A5000146E08C0F6FF09C0F7FF000EF86E08001C
:100A6000F550200AD8B437EF85F039EF85F058EF0C
:100A700085F0F70E0A6EFF0E0B6E08C0F6FF09C078
:100A8000F7FF000EF86E0800F5500C6E0D6A0A5064
:100A90000C260B500D220D5009E1050E0C5CD8A060
:100AA00054EF85F056EF85F058EF85F0000E146E88
:100AB00014C010F0116A10501110D8A462EF85F024
:100AC00064EF85F025EF85F06EEF85F0000E0F6E78
:100AD000010E0E6E084A092AA7EF85F008C0F6FF3E
:100AE00009C0F7FF000EF86E0800F5500A6E0B6A99
:100AF0000B50000AD8B47FEF85F0A7EF85F00A50BD
:100B00002B0AD8B46AEF85F0060AD8B466EF85F0F0
:100B1000A7EF85F015C001F016C002F0000E046EBC
:100B20000A0E036EE4EC8BF008C0F6FF09C0F7FF75
:100B3000000EF86E0800F550015E000E025A300EED
:100B40000124156E000E0220166E6AEF85F0D00E9D
:100B50000A6EFF0E0B6E08C0F6FF09C0F7FF000E0D
:100B6000F86E0800F5500C6E0D6A0A500C260B50FA
:100B70000D220D500AE10A0E0C5CD8A0C2EF85F0E0
:100B8000C5EF85F0010EC6EF85F0000E126E136AF8
:100B900012501310D8A4CFEF85F0D1EF85F08AEF73
:100BA00085F00E500F10D8A4D8EF85F0DAEF85F05D
:100BB000E8EF85F015C00AF016C00BF00A1E0B1EF8
:100BC0000A4A0B2A0AC008F00BC009F0ECEF85F0C6
:100BD00015C008F016C009F01200000E126E10BE0B
:100BE000F6EF85F0F4EF85F008EF86F0101E0F1E8B
:100BF0000E1E0D1E0C1E0B1E0A1E096C000E0A2274
:100C00000B220C220D220E220F221022010E126E38
:100C100008BE0FEF86F00DEF86F021EF86F0081E7C
:100C2000071E061E051E041E031E021E016C000E7A
:100C30000222032204220522062207220822010E94
:100C4000121A20EE13F0070EDE6AE806FDE20950E4
:100C50000A100B100C100D100E100F101010D8B43D
:100C600034EF86F036EF86F088EF86F0010E116ED5
:100C700044EF86F0D89009360A360B360C360D361E
:100C80000E360F361036112A10AE49EF86F04BEFB4
:100C900086F03AEF86F0D8901336143615361636AD
:100CA0001736183619361A360950015C0A500258A0
:100CB0000B5003580C5004580D5005580E50065850
:100CC0000F50075810500858D8A069EF86F06BEF06
:100CD00086F07CEF86F00950015E0A50025A0B50F4
:100CE000035A0C50045A0D50055A0E50065A0F5014
:100CF000075A1050085A1380D89010320F320E3213
:100D00000D320C320B320A320932112E4BEF86F0C3
:100D10001250D8B48EEF86F090EF86F0A0EF86F0F8
:100D20001A1E191E181E171E161E151E141E136CD1
:100D3000000E1422152216221722182219221A2216
:100D400013C001F014C002F015C003F016C004F087
:100D500017C005F018C006F019C007F01AC008F057
:100D60001200000E126E08BEBAEF86F0B8EF86F0E1
:100D7000CCEF86F0081E071E061E051E041E031E6D
:100D8000021E016C000E022203220422052206220A
:100D900007220822010E126E10BED3EF86F0D1EFAB
:100DA00086F0E3EF86F0101E0F1E0E1E0D1E0C1EA9
:100DB0000B1E0A1E096C000E0A220B220C220D22A9
:100DC0000E220F22102209500A100B100C100D10C9
:100DD0000E100F101010D8B4F0EF86F0F2EF86F07E
:100DE0003AEF87F0010E116E00EF87F0D8900936C8
:100DF0000A360B360C360D360E360F361036112AE3
:100E000010AE05EF87F007EF87F0F6EF86F0095098
:100E1000015C0A5002580B5003580C5004580D50F6
:100E200005580E5006580F50075810500858D8A0B3
:100E30001CEF87F01EEF87F02EEF87F00950015E60
:100E40000A50025A0B50035A0C50045A0D50055ABE
:100E50000E50065A0F50075A1050085AD8901032A8
:100E60000F320E320D320C320B320A320932112E91
:100E700007EF87F01250D8B440EF87F042EF87F0C9
:100E800052EF87F0081E071E061E051E041E031ED5
:100E9000021E016C000E02220322042205220622F9
:100EA0000722082201C001F002C002F003C003F0D3
:100EB00004C004F005C005F006C006F007C007F046
:100EC00008C008F01200000E0001A06F000E9F6F16
:100ED000D80E576EFF0E586ED1EC8BF0000E046EDC
:100EE000140E036E9F0E056E000E066E13EC88F056
:100EF0000009D8A47EEF87F080EF87F08AEF87F0B3
:100F0000D50E576EFE0E586E9FC059F0A0C05AF015
:100F1000D1EC8BF0000E046E150E036E9F0E056E65
:100F2000000E066E13EC88F00009D8A49AEF87F043
:100F30009CEF87F0A6EF87F0BF0E576EFE0E586E3F
:100F40009FC059F0A0C05AF0D1EC8BF0000E046E97
:100F50003D0E036E9F0E056E000E066E13EC88F0BC
:100F60000009D8A4B6EF87F0B8EF87F0C2EF87F09A
:100F7000EB0E576EFE0E586E9FC059F0A0C05AF08F
:100F8000D1EC8BF0000E046E3E0E036E9F0E056ECC
:100F9000000E066E13EC88F00009D8A4D2EF87F09B
:100FA000D4EF87F0F0EF87F09FC001F0A0C002F00F
:100FB000000E046E500E036EE4EC8BF001C09DF049
:100FC00002C09EF0130E576EFD0E586E9FC059F072
:100FD000A0C05AF09DC05BF09EC05CF0D1EC8BF0DD
:100FE000000E046E3F0E036E9F0E056E000E066E21
:100FF00013EC88F00009D8A400EF88F002EF88F025
:1010000012EF88F0310E576EFD0E586E9FC059F0EA
:10101000A0C05AF0D89000019F355B6EA0355C6E81
:10102000D1EC8BF01200000E0B6E000E0C6E58EC23
:101030008CF0120EBDEC8BF00D6E0D50D8B423EF7A
:1010400088F025EF88F028EF88F00D5081EF88F0C8
:101050000350BDEC8BF00D6E0D50D8B432EF88F01C
:1010600034EF88F036EF88F025EF88F061EC8CF0F3
:10107000130EBDEC8BF00D6E0D50D8B442EF88F01E
:1010800044EF88F046EF88F025EF88F00C0E016EF3
:10109000000E026EF7EC8BF00D6E0D50D8B453EFCE
:1010A00088F055EF88F057EF88F025EF88F045EC91
:1010B0008CF00B0E016E000E026EF7EC8BF00D6ED5
:1010C0000D50D8B466EF88F068EF88F06AEF88F0CA
:1010D00025EF88F03BEC8CF04FEC8CF00B50086E59
:1010E000076A0C50096E0A6A0750091208500A1262
:1010F00005C0D9FF06C0DAFF09C0DEFF0AC0DDFF68
:10110000000E1200000166A188EF88F08AEF88F0D7
:1011100094EF88F015C00CF016C00DF013C00EF05F
:1011200014C00FF09AEC8AF018BE99EF88F09BEF8C
:1011300088F0A1EF88F017C01CF018C01DF0A5EFD3
:1011400088F0000E1D6E000E1C6E000E1B6E000E51
:101150001A6EB7EF88F0000E046E200E036E13C0F7
:1011600005F014C006F043EC89F01A4A1B2A1C5003
:101170001A5C1B50800A196E1D50800A1958D8A09D
:10118000C4EF88F0C6EF88F0ABEF88F0000166B1DD
:10119000CCEF88F0CEEF88F0D8EF88F015C00CF0D7
:1011A00016C00DF013C00EF014C00FF09AEC8AF0C8
:1011B00015C001F016C002F06FEC8BF01C5001243A
:1011C000136E1D500220146E1200190E0E01656F71
:1011D0001A0E666F130E196F140E1A6F180EA113E4
:1011E000400E946E080E956E000E966E000E976E71
:1011F0009268958A63EC87F0020E086E000E076E07
:1012000014EC8CF05F6E5F50D8B409EF89F00BEFEF
:1012100089F00DEF89F042EF89F0400E086E100E54
:10122000076E21EC8CF05F6E5F50D8B41AEF89F036
:101230001CEF89F01EEF89F042EF89F0020E086E74
:10124000000E076E2EEC8CF05F6E5F50D8B42BEF63
:1012500089F02DEF89F02FEF89F042EF89F03E0EF3
:10126000086E810E076E07EC8CF05F6E5F50D8B48D
:101270003CEF89F03EEF89F040EF89F042EF89F0D2
:1012800063EC87F0120005500610D8B44AEF89F0DD
:101290004CEF89F055EF89F005500610D8A453EFB4
:1012A00089F055EF89F05AEF89F0035070EC8CF01B
:1012B0008DEF89F020EE04F00550D9260650DA2291
:1012C000DE50DE10D8B467EF89F069EF89F084EF63
:1012D00089F020EE04F00550D9260650DA2210EEEF
:1012E00002F00550E1260650E222DE50E65CE650B0
:1012F000800A0B6EDE50800A0B58D8B082EF89F05E
:1013000084EF89F08DEF89F020EE02F00550D926A8
:101310000650DA22DE2A000EDD2212008198849E19
:101320007C8E0E01B2818690B4917E90600E436FE8
:10133000020E496F1F0EB417BC951751C00B32092E
:10134000176F180EE26F900EE06F240EE16F670EBC
:10135000DE6F140E856F87967E80A10E026E000EE2
:10136000036E8AEC8BF0E5EC88F03F0EBC6E800ECD
:10137000BD6E010EBF6ECF0EAE16030EA06EC00E78
:101380009F6E800EA16E0B0E0E01726F0B0E736FAF
:101390008590859263EC87F0CAEF89F000EF00F04A
:1013A00058EC8CF0120EBDEC8BF0066E0650D8B4E3
:1013B000DCEF89F0DEEF89F0E1EF89F006500EEF07
:1013C0008AF00250BDEC8BF0066E0650D8B4EBEFFD
:1013D00089F0EDEF89F0EFEF89F0DEEF89F004504E
:1013E000BDEC8BF0066E0650D8B4F9EF89F0FBEF38
:1013F00089F0FDEF89F0DEEF89F00550BDEC8BF050
:10140000066E0650D8B407EF8AF009EF8AF00BEFAA
:101410008AF0DEEF89F04FEC8CF0000E120051C024
:1014200055F052C056F0000E0001616F000E606F63
:101430002DEF8AF04FC045F050C046F0550E476E74
:10144000000E486E53C049F054C04AF000EC80F0E2
:101450004550000160274650612355C0F6FF56C035
:10146000F7FF000EF86E0800F5500009D8A43BEF16
:101470008AF03DEF8AF01AEF8AF060C04FF061C049
:1014800050F012009F0E096EFF0E0A6E07C00BF09F
:1014900008C00CF009500B260A500C220C500AE12F
:1014A0001A0E0B5CD8A057EF8AF05AEF8AF0010EA3
:1014B0005BEF8AF0000E0D6E0E6A0D500E10D8B460
:1014C00064EF8AF066EF8AF06CEF8AF05F0E071423
:1014D000076E086A70EF8AF007C007F008C008F0CE
:1014E0001200010E076E200E01180210D8B47BEF17
:1014F0008AF07DEF8AF096EF8AF0F70E036EFF0E0A
:10150000046E01C005F002C006F003500526045029
:101510000622065009E1050E055CD8A092EF8AF07C
:1015200094EF8AF096EF8AF0000E076E07C001F084
:10153000026A1200000E126E000E116EABEF8AF0FE
:1015400010C003F0046A0EC005F00FC006F043ECB3
:1015500089F0114A122A11500C24D96E12500D2014
:10156000DA6EDF50106E1050D8A4B9EF8AF0BBEFDE
:101570008AF0A0EF8AF01200016E0E0137A9C3EFC6
:101580008AF0C5EF8AF0BDEF8AF08EBCCAEF8AF010
:10159000CCEF8AF0DCEF8AF08EAED1EF8AF0D3EF99
:1015A0008AF0DCEF8AF08EBAD8EF8AF0DAEF8AF0B0
:1015B000DCEF8AF001C0DDFE120014BEEAEF8AF013
:1015C000145006E11304D8B0E8EF8AF0EAEF8AF08D
:1015D000F8EF8AF013C015F014C016F0151E161E91
:1015E000154A162A15C013F016C014F0FCEF8AF045
:1015F00013C013F014C014F012009F0E036EFF0E00
:10160000046E200E0110056E000E0210066E0350CF
:1016100005260450062206500AE11A0E055CD8A0E1
:1016200014EF8BF017EF8BF0010E18EF8BF0000E1C
:10163000016E026A12009F0E036EFF0E046E01C05F
:1016400005F002C006F0035005260450062206509D
:101650000AE11A0E055CD8A030EF8BF033EF8BF067
:10166000010E34EF8BF0000E016E026A1200BF0E05
:10167000036EFF0E046E01C005F002C006F00350B9
:1016800005260450062206500AE11A0E055CD8A071
:101690004CEF8BF04FEF8BF0010E50EF8BF0000E04
:1016A000016E026A1200D00E036EFF0E046E01C0BE
:1016B00005F002C006F0035005260450062206502D
:1016C0000AE10A0E055CD8A068EF8BF06BEF8BF097
:1016D000010E6CEF8BF0000E016E026A120001C069
:1016E00003F002C004F077EF8BF0014A022A01C038
:1016F000D9FF02C0DAFFDF50D8A481EF8BF083EF6F
:101700008BF075EF8BF00350015C016E04500258B2
:10171000026E1200000EF86E97EF8BF002C0D9FF38
:1017200003C0DAFFDF50BCEC8AF0024A032A02C091
:10173000D9FF03C0DAFFDF50D8A4A1EF8BF0A3EFED
:101740008BF08EEF8BF01200D40EF66E180EF76E43
:10175000010EF86E00EEA1F010EE0BF00900F5CFCF
:10176000EEFFE550E150FAE100EE60F0280EEE6A7F
:10177000E806FDE100018EEF89F0016E01C091FFE6
:1017800094B4C5EF8BF0C7EF8BF0C0EF8BF096BC35
:10179000CCEF8BF0CFEF8BF0010ED0EF8BF0000E83
:1017A0001200590E5D6E000E5E6E000E4F6E000E42
:1017B000506E57C051F058C052F05D0E536E000E7F
:1017C000546E0FEC8AF0120001500302F3CF05F0C3
:1017D000F4CF06F001500402F35006260250030233
:1017E000F350062605C001F006C002F012009686EE
:1017F00096B6FDEF8BF0FFEF8BF0F8EF8BF001C0AA
:10180000D9FF02C0DAFF91CFDFFF000E1200000EF9
:10181000036E3D0E026E07C004F008C005F0D0EC68
:1018200089F0096E09501200000E036E3F0E026E21
:1018300007C004F008C005F0D0EC89F0096E09502B
:101840001200000E036E150E026E07C004F008C0F1
:1018500005F0D0EC89F0096E09501200000E036EFD
:10186000140E026E07C004F008C005F0D0EC89F039
:10187000096E09501200968A968896B842EF8CF04D
:1018800044EF8CF03DEF8CF01200969A968896B853
:101890004CEF8CF04EEF8CF047EF8CF012009684FA
:1018A00096B455EF8CF057EF8CF050EF8CF012009F
:1018B000968096B05EEF8CF060EF8CF059EF8CF074
:1018C0001200968296B267EF8CF069EF8CF062EFAF
:0F18D0008CF012000D0A48656C6C6F210D0A0038
:0A18E000026E0250BCEC8AF0120008
:020000040020DA
:10000000FF0FFF0FFF0FFF0FFF0FFF0FFF0FFF0F80
:020000040030CA
:0C000000ECDF1FF79FFFFFCCFFFFFFFFAE
:00000001FF
